:100000000C941E020C9465020C9465020C9465021B
:100010000C9465020C9465020C9465020C946502C4
:100020000C9465020C9465020C9478210C944A227D
:100030000C944B180C9465020C9465020C946502A8
:100040000C9465020C9465020C9465020C94650294
:100050000C9465020C9498180C9465020C9465023B
:100060000C9465020C9465020C9465020C94650274
:100070000C9465020C9465020C9465020C94650264
:100080000C9465020C9465020C9465020C94650254
:100090000C9465020C9465020C9465020C94650244
:1000A0000C9465020C9465020C9465027002760251
:1000B0007C02820288028E0294029A02A002A602A8
:1000C000AB02B002B502BA02BF02C402C902CE023C
:1000D000D302D802DD02AD0DAD0DDF0DDF0D2C0E0C
:1000E0004A0E6B0F6B0F550EEA0EFB0EFB0E5B0FED
:1000F0006B0F6B0F640F191019102B102B1022109F
:100100002B102B102B101910191027102B102B103F
:100110002710B722DE22D623DE22D6232A234D2320
:10012000D623A423B3235200380000005200370026
:10013000000052003600000052003400000052005F
:100140003300000052003100000052003000000077
:1001500052002F00000052002E00000052002D001F
:10016000000052002700000052002600000052004C
:10017000250000005200240000005200230000006F
:100180005200220000005200210000005200200016
:10019000000052001F00000052001E00000052002C
:1001A0002900000029001E001F002000210022005D
:1001B000230024002500260027002D002E002A0001
:1001C0002B0014001A000800150017001C0018006E
:1001D0000C00120013002F0030003100E200040078
:1001E0001600070009000A000B000D000E000F00AA
:1001F0003300340000002800E10000001D001B0057
:100200000600190005001100100036003700380004
:10021000000052003900E300E000000000002C0064
:1002200000000000000000001150500051004F007D
:1002300035003A003B003C003D003E003F004000DE
:10024000410042004300440045004C002B001400D4
:100250001A000800150017001C0018000C001200FE
:1002600013002F0030003100E000040016000700EA
:1002700009000A000B000D000E000F0033003400CF
:1002800000002800E10000001D001B00060019000E
:100290000500110010003600370038000000520041
:1002A0003900E300E200000000002C000000000024
:1002B000000000001050500051004F0004033000B7
:1002C000000012036B006500790062006F0061009E
:1002D000720064000000160371006D006B00620084
:1002E000750069006C006400650072000000040382
:1002F000090409023B00020100A0FA090400000100
:1003000003010100092111010001224000070581BC
:100310000308000A0904010001030000000921117B
:1003200001000122BC000705820320000A1201100F
:100330000100000008EDFE606001000102030105FC
:10034000010902A10185020901A10005091901297C
:10035000051500250195057501810295017503813B
:10036000010501093009311581257F950275088144
:100370000609381581257F950175088106050C0A47
:1003800038021581257F950175088106C0C00501D9
:100390000980A101850319012AB700150126B700BC
:1003A000950175108100C0050C0901A10185041992
:1003B000012AA002150126A002950175108100C036
:1003C00005010906A1018505050719E029E71500C2
:1003D00025019508750181020507190029EF15000F
:1003E000250195F07501810205081901290595057A
:1003F00075019102950175039101C005010906A1DE
:1004000001050719E029E715002501950875018107
:10041000029501750881010507190029FF150026BD
:10042000FF00950675088100050819012905950545
:1004300075019102950175039101C00011241FBE41
:10044000CFEFDAE0DEBFCDBF04B603FE27C0809158
:100450000F0390911003A0911103B0911203873004
:10046000904BA740B04BD1F410920F0310921003A1
:10047000109211031092120314BE84B7877F84BFB9
:100480000FB6F894A8958091600088618093600011
:10049000109260000FBEE0E0F8E3099511E0A0E0E3
:1004A000B1E0E8EFF8E402C005900D92A43FB10777
:1004B000D9F723E0A4EFB1E001C01D92AF30B2073D
:1004C000E1F70E94A71E0C947A240C940000853159
:1004D000910508F078C0FC01EA5AFF4F0C941E24E5
:1004E000662309F470C085E392E06BC0662309F4CB
:1004F0006AC08EE192E065C0662309F464C08FE1B2
:1005000092E05FC0662309F45EC080E292E059C0C9
:10051000662309F458C081E292E053C0662309F4CF
:1005200052C082E292E04DC0662309F44CC083E2DF
:1005300092E047C0662309F446C084E292E041C0DD
:10054000662309F440C085E292E03BC06623D9F1FE
:1005500086E292E036C06623B1F187E292E031C0D4
:10056000662389F18DE292E02CC0662361F18EE270
:1005700092E027C0662339F18FE292E022C0662321
:1005800011F180E392E01DC06623E9F081E392E07F
:1005900018C06623C1F083E392E013C0662399F08C
:1005A00084E392E00EC0662371F086E392E009C016
:1005B000662349F087E392E004C0662321F088E3D4
:1005C00092E00C943F030895089508959C013A9594
:1005D00021153F4138F5DC01AA27B270AC01442750
:1005E00054709C012227387094FF0FC090FF02C006
:1005F00080E101C080E0AB2B09F08062452B09F05F
:100600008064232B69F080680BC0892F8170AB2B2D
:1006100009F08260452B09F08460232B09F0886083
:10062000FB0109940895CF93DF93EC01805E91095B
:10063000089710F0209719F469E67DE002C06FED8D
:100640007FE0CE010E94E6028C2FDF91CF910C94C7
:10065000440CCF93DF93EC010E94EE0CCE01805E40
:100660009109089710F0209719F460E77DE002C027
:1006700066EE7FE0CE01DF91CF910C94E602CF933E
:10068000DF93EC010E941303CE01DF91CF910C9414
:10069000290381E0089581E008950C944B030895A7
:1006A0000C944F031F93CF93DF9300D000D01F9281
:1006B000CDB7DEB749835A836B833091220289819B
:1006C0009A81311114C0662359F0222349F00E9407
:1006D0005215182F682F89819A810E94FB1403C03C
:1006E0000E942615182F69817A81812F04C00E94EB
:1006F000521569817A810F900F900F900F900F9093
:10070000DF91CF911F910C940C04FC01262F4081A6
:1007100051816281738184810C945203CF93DF9362
:10072000EC0160E00E948503BE01DF91CF910C9443
:1007300050030E948416811102C00E942E170C944F
:1007400026060E946F090C94240608950C94A503B4
:1007500081E008950C94A803CF93C82F0E94A603AC
:100760008C2F0E94AA03CF91089508950E9407102C
:100770000E94B5032FEF84E39CE02150804090401D
:10078000E1F700C000000C94BE180F931F93CF93A5
:10079000DF93EC0161E00E9485038C01BE010E94A1
:1007A0004D03882379F1BE01C8010E949C0988236A
:1007B00049F1BE01C8010E94B607882319F1BE01A4
:1007C000C8010E94F7078823E9F0BE01C8010E9412
:1007D0001E098823B9F08A81882369F001158CE508
:1007E000180731F00E3D1C4531F40E942E170AC047
:1007F0000E94B60307C0CE01DF91CF911F910F91E8
:100800000C94490380E0DF91CF911F910F910895DF
:1008100080E090E00895089526E4829FC0011124AD
:10082000FC012EE0729FE00DF11D1124E60FF11D79
:10083000EE0FFF1FEC55FE4F859194910895880FA0
:10084000991FFC01E454FD4F859194910895CF9335
:10085000DF930E940C040E943F05EC018115904536
:1008600008F041C0C11580E4D80708F0D1C0C83EE7
:10087000D10510F5C03ED10508F0FDC0C83AD1053C
:1008800078F4C53AD10508F0A2C0C130D10509F409
:10089000F2C008F4EEC0C430D10508F0ECC0E9C0E5
:1008A000CF3BD10508F49BC0C03CD10508F4E1C0A2
:1008B000CE01805C91099EC0C11590E2D90758F421
:1008C000C11521E0D20708F0D6C0C03FD10508F419
:1008D000D0C0D065D0C0C11580E3D80708F08EC065
:1008E000CE019F7087C0C11595E5D90708F043C0B8
:1008F000C11524E5D20708F0A2C0C11582E5D807CA
:1009000008F5C11591E5D90708F085C0CE0174E05E
:10091000969587957A95E1F783709C2F937021E0E7
:1009200030E002C0220F331F9A95E2F73C68382B63
:10093000CF70C695C69580E2C89FE0011124C22BF6
:10094000D32B99C09E01237033278C2F86958695D3
:10095000C115D34508F064C0C1E0D0E002C0CC0F9F
:10096000DD1F2A95E2F720E2829FC0011124C82BE7
:10097000D92BDC6880C0C11529E5D207A0F4C115C8
:1009800088E5D80708F060C0C11596E5D90708F0DA
:1009900070C08C2F0E94D3058F71C82FD0E0DC2F40
:1009A000CC27D06268C0C1152AE5D20708F451C02F
:1009B000CE0190568115904208F05BC08D2F8F714B
:1009C0000E94D305DD27D0628F71D82B54C0C55A41
:1009D000D0E0C355DE4FC881D0E0D0644CC0C85AC7
:1009E000D0E0CC0FDD1FC158DE4F0990D881C02D5B
:1009F000D46441C00E941F04EC013DC0CE01992780
:100A0000D3FF03C0EC01D86C36C0EC01D06C33C00E
:100A1000DF70D06A30C0DC2FCC27C16FD06A2BC00A
:100A2000C1E0D0E002C0CC0FDD1F2A95E2F720E242
:100A3000829FC0011124C82BD92BDA681CC0DC2F7F
:100A4000CC27C46FD06A17C0DC2FCC27C06FD06A08
:100A500012C08C2F8F700E94D30594E0D695C79555
:100A60009A95E1F7CF70D0E0DC2FCC27D069C82B66
:100A700002C0C0E0D0E0CE01DF91CF91089582386E
:100A8000910569F1B0F48133910509F46DC048F422
:100A90008932910509F463C08A32910509F469C06D
:100AA00008958533910509F455C089339105B9F04E
:100AB0000895833E910569F138F4803E9105B1F0C7
:100AC000823E910509F10895863E9105A9F1873E80
:100AD0009105B9F1843E910509F064C023C02091CD
:100AE000000320FD4FC021FD4DC0089580910003FB
:100AF00080FD44C08091010380FF44C080910003C9
:100B000084FD42C083EE4DC08091000382FF38C057
:100B1000F5CF8091000382FD33C08091010380FDF9
:100B200031C0ECCF8091010381FF32C0809100037E
:100B300084FD2AC087EE35C08091000383FF26C064
:100B4000F5CF8091000383FD21C08091010381FDD9
:100B50001FC0ECCF8091000385FD1CC01DC080919B
:100B6000000385FD19C016C08091000386FD16C0E4
:100B700017C08091000386FD13C010C089E311C027
:100B800082EE0FC080EE0DC080E00BC086EE09C083
:100B900084EE07C089E205C085E303C08AE201C094
:100BA00081E390E008959091000392FF0DC0282FFB
:100BB0002871283019F4877F846006C0282F24719B
:100BC000243011F48B7F886093FF0DC0282F28718B
:100BD000283119F4877E846106C0282F24712431BE
:100BE00011F48B7E88612091010320FF0DC0382F06
:100BF0003871383019F4877F816006C0382F317121
:100C0000313011F48E7F886021FF0DC0282F2871AC
:100C1000283119F4877E816106C0282F2171213186
:100C200011F48E7E886194FD877E0895E82FF0E0B0
:100C3000EE0FFF1FEE50FD4F8081918108950895C2
:100C400080EA8A95F1F708950C94E5020C94E40289
:100C5000CF93DF93AEEBB1E043EC51E061E070E0A5
:100C60008D91E82FE295EF70F0E021A18F70EB01FC
:100C700002C0CC0FDD1F8A95E2F7CE019C2F909524
:100C8000922391A392A1892B82A34A175B0741F774
:100C9000A0EBB1E04EEB51E061E070E08D91E82F08
:100CA000E295EF70F0E021A18F70EB0102C0CC0F54
:100CB000DD1F8A95E2F7CE019C2F9095922391A398
:100CC00092A1892B82A34A175B0741F7E8EEF2E075
:100CD000A2EFB2E082EF92E0119211921D921D926A
:100CE0008E179F07C9F785E00E940707DF91CF9114
:100CF0000C9499036F927F928F929F92AF92BF92C2
:100D0000CF92DF92EF92FF920F931F93CF93DF93D7
:100D10008EEBC82E81E0D82E08EE12E092EFA92EBD
:100D200092E0B92E712C88248394912CF601819144
:100D30006F01C82FC295CF70D0E099A18F70740158
:100D400001C0EE0C8A95EAF7892F8E2989A38AA122
:100D50006E2C609486218AA30E942006E0EBF1E0CD
:100D600040E050E020E030E06191A62FA295AF7006
:100D7000B0E090968C9190E06F7002C09595879549
:100D80006A95E2F780FD08C0C401042E02C0880FF6
:100D9000991F0A94E2F702C080E090E0282B392BDB
:100DA0004F5F5F4F4E305105F9F689A1682269A265
:100DB0008AA1E82AEAA2F8018081918128173907DF
:100DC00021F03183208381E001C080E0782A0E5F2A
:100DD0001F4FA016B10609F0A9CF272D45E062EFFD
:100DE00072E088EE92E00E9408070E94A103872D1E
:100DF000DF91CF911F910F91FF90EF90DF90CF90F7
:100E0000BF90AF909F908F907F906F9008950895BE
:100E1000FF920F931F93CF93DF93F82E092F162F76
:100E2000D72FC42F222349F081E08093F6010E943E
:100E30007D189093F5018093F4018091F601882349
:100E4000D9F08091F4019091F5010E9489180697DC
:100E500098F0EF2DF02FA12FBD2F80E090E04C2FC8
:100E600050E08417950734F4219131912D933D93EF
:100E70000196F7CF1092F601DF91CF911F910F915C
:100E8000FF9008950F931F93CF93DF93C62FD42F16
:100E9000122FFC0182818823C9F06093F9010E941E
:100EA0007D189093F8018093F70180E28C0F8830D1
:100EB00008F057C0C77081E001C0880FCA95EAF7F3
:100EC000DF91CF911F910F910C94690D8091F901E1
:100ED000681330C08091F7019091F8010E94891841
:100EE000883C910538F500E20D0FCD17B9F080E28E
:100EF0008C0F883040F4C77081E001C0880FCA951C
:100F0000EAF70E94700D083028F581E09D2F977058
:100F100001C0880F9A95EAF70E94690D812F0E94FF
:100F2000560D0830F0F4D77081E001C0880FDA95D3
:100F3000EAF70AC080E28C0F883098F4C77081E02D
:100F400001C0880FCA95EAF7DF91CF911F910F91E9
:100F50000C94700D812FDF91CF911F910F910C9404
:100F6000560DDF91CF911F910F9108959C01CB01F8
:100F7000233F4CE53407F9F078F4283DFCE53F07C2
:100F8000B9F0293D4CE5340711F1273D3C4531F5D9
:100F900026E241EE61EE1EC0253FFCE53F0799F0D9
:100FA00070F0263F3C45D1F427E245EE66EE12C0D4
:100FB00027E245EE0EC026E241EE60EE0BC027E2CE
:100FC00045EE64EE07C026E241EE62EE03C028E281
:100FD00041E065EE0E94420780E00895FC018281B5
:100FE000882319F01092F901089581E00895CF93B4
:100FF000DF93EC01FB018281882309F41BC1C2301D
:10100000FCE5DF0708F417C1C6319CE5D90738F0C5
:101010009E012A5F3C452730310508F00CC10E9433
:10102000A1169093010380930003CF30ECE5DE0717
:1010300009F4CFC008F042C0C8308CE5D80709F4E5
:10104000A8C0F0F4C430ECE5DE0709F490C068F401
:10105000C2308CE5D80709F486C0C330DC4509F0FE
:10106000DFC0809100038260D9C0C630ECE5DE07A6
:1010700009F487C008F089C0809100038860CEC061
:10108000CB308CE5D80709F495C068F4C930ECE59D
:10109000DE0709F482C0CA30DC4509F0C1C0809186
:1010A0000003886080C0CD308CE5D80709F486C085
:1010B00008F087C0809100038D7FB0C0CA3FECE587
:1010C000DE0709F457C050F5C2318CE5D80709F4A2
:1010D00088C068F4C031ECE5DE0709F47EC0C13198
:1010E000DC4509F09DC0809100038F7B97C0C4311F
:1010F0008CE5D80709F487C008F479C0C531DC4510
:1011000009F08EC08091000382FB222720F991E034
:10111000922790FB82F990FB83F980C0CD3FFCE5DC
:10112000DF0709F452C058F4CB3F9CE5D90729F1F9
:10113000CC3FDC4509F074C08091010360C0CF3F13
:10114000FCE5DF0709F458C080F1C115DD4509F061
:1011500067C080910103982F909591708E7F892BA5
:1011600090FB81F94DC080910003816057C0809150
:10117000000319C0809101031BC0809101038260AC
:101180003FC080910003806149C08091000380626C
:1011900045C080910003806441C00E940710809187
:1011A000000380683BC0846039C080910103826085
:1011B000816026C0809100038E7F30C08091000343
:1011C00019C080910003877F29C0809101038D7F22
:1011D00017C0809100038F7E21C0809100038F7D16
:1011E0001DC00E940710809100038F7717C0809167
:1011F0000003877F8B7F12C0809101038D7F8E7FDC
:10120000809301030DC00E9407108091000387FBAB
:10121000222720F991E0922790FB87F98093000321
:1012200080910003909101030E94B2160E94071062
:1012300080E001C081E0DF91CF910895CF93DF93EB
:1012400086319C4541F5EB010E94D315982F8A8188
:1012500020916A0130916B01882379F09A7A81E0BC
:1012600009F480E08093FA01911102C069E201C0A3
:1012700065E3C9010E94CB170AC08091FA01811170
:1012800002C069E201C065E3C9010E94D6170E944D
:10129000211680E001C081E0DF91CF910895CF93C6
:1012A00090910B029923C9F0882311F0C0E003C08C
:1012B00010920B0212C080910B02C817C8F7EC2FD6
:1012C000F0E0EE0FFF1FE550FE4F808191810E94FC
:1012D00013030E942116CF5FEECFCF910895809126
:1012E00069018823A1F080910C02882381F080910C
:1012F0000F0290911002009751F00E9489188D32D0
:10130000914028F010920C0281E00C944F0908954E
:1013100010920C02109269011092100210920F02AA
:1013200081E00C944F098091690181110C94880926
:1013300081E08093690108955F926F927F928F920E
:101340009F92AF92BF92CF92DF92EF92FF920F9354
:101350001F93CF93DF937C016B0110920D0287EFF7
:10136000E8168CE5F80641F4FB01C281CC23E1F0DC
:1013700081E0809369010CC1F8EFEF16FCE5FF06F0
:1013800039F4FB01C281CC2379F00E94880900C1A5
:10139000F9EFEF16FCE5FF0639F4FB01C281CC231F
:1013A00019F00E949309F4C080916901882309F41F
:1013B000EEC010920E02AA24A394B12C95E0992EAF
:1013C000C1E0D0E08824839400910E02053108F03A
:1013D000A0C010E0909EF001919EF00D1124E0500D
:1013E000FF4F9081418177247A9480E0E92FF42F98
:1013F000E80FF11DE80FF11D25913491E216F30677
:1014000009F4782E232B11F08F5FF0CFFFEF7F12BE
:1014100002C0612C65C050900C02F601628066200B
:1014200069F1909EF001919EF00D1124E050FF4F64
:101430009E0101C0220F7A94EAF79481292B24831C
:10144000552039F3AE0102C0440F551F8A95E2F7CB
:1014500041505109822F90E04817590709F040C0C8
:1014600082819381009719F00E94130304C061E008
:10147000C8010E94670280920D0232C09E0102C024
:10148000220F331F8A95E2F721503109909EF00117
:10149000919EF00D1124E050FF4F848190E02817B9
:1014A000390761F482819381009719F00E94290322
:1014B00006C060E0C8010E94670201C0512C909EE6
:1014C000F001919EF00D1124E050FF4FCE0101C0BC
:1014D000880F7A94EAF78095948189238483652C18
:1014E000B628AA2069F0909EF001919EF00D11247B
:1014F000E050FF4F91E08481811190E0892F01C07D
:1015000080E08170A82E80910E028F5F80930E0282
:101510005BCF80910D02882351F00E947D1890933B
:10152000100280930F0280E00E944F092CC0B1107E
:101530000DC081E00E944F09AA2029F110921002EB
:1015400010920F0281E080930C021DC0F60182818F
:101550008823C9F080910C028823A9F00E947D188D
:101560009093100280930F02E0910B02E83058F440
:1015700081E08E0F80930B02F0E0EE0FFF1FE5502D
:10158000FE4FF182E08281E0CB2DC82701C0C1E08F
:101590008C2FDF91CF911F910F91FF90EF90DF90F3
:1015A000CF90BF90AF909F908F907F906F905F9003
:1015B000089590931602809315020895E091150204
:1015C000F0911602309721F00190F081E02D0994FE
:1015D00080E00895E0911502F0911602309799F09D
:1015E00020917E01222359F02091000327FF07C09C
:1015F000DC012C9111962C93119725E02C930280FD
:10160000F381E02D09940895E0911502F0911602FE
:10161000309739F022E0DC012C930480F581E02D35
:101620000994089520911302309114022817390764
:1016300071F09093140280931302E0911502F091DF
:101640001602309721F00680F781E02D0994089565
:1016500020911102309112022817390771F09093EE
:10166000120280931102E0911502F0911602309758
:1016700021F00084F185E02D0994089585B78068F4
:1016800085BF85B7806885BF089508950C94450B84
:101690000C94460B0C94450B0C94450B0E943E0B8E
:1016A0000E944A0B0C94480B81E008950C94540B53
:1016B0000E9474180E9428060E942E190C944C0B4C
:1016C0007F928F929F92AF92BF92CF92DF92EF92D2
:1016D000FF920F931F93CF93DF93CDB7DEB72A9777
:1016E0000FB6F894DEBF0FBECDBF0E947A060E94EF
:1016F000560B811111C08FEF89838A831B820E9450
:101700007D188160782F9D838C8349815A816B81FC
:101710008D810E94100C4FC048E1A42E42E0B42EEF
:1017200000E010E0702E802F0E9416066C01F5017B
:10173000819091905F01882699268114910431F45B
:101740000F5F1F4F0530110569F7D5CF8091B502A6
:1017500081FD0E941F0680E0EE24E394F12C9401A9
:101760002E213F21232B09F18E837F82CE20DF2083
:1017700081E0CD2809F480E088870E947D1881608F
:10178000782F9A8789874E815F8168858A850E9434
:10179000100C000F111FF801E85EFD4F8081918150
:1017A000E826F926F182E08206C08F5FEE0CFF1C6E
:1017B0008E30A9F6C5CF0E94E21B0E94DE0A9091EE
:1017C00017028917C9F00E94DE0A809317022A9631
:1017D0000FB6F894DEBF0FBECDBFDF91CF911F9142
:1017E0000F91FF90EF90DF90CF90BF90AF909F90C0
:1017F0008F907F900C94AC032A960FB6F894DEBFBE
:101800000FBECDBFDF91CF911F910F91FF90EF9051
:10181000DF90CF90BF90AF909F908F907F90089572
:10182000CF93DF93CDB7DEB72B970FB6F894DEBF1B
:101830000FBECDBF4F83588769877A878B87DE01BC
:10184000119686E0FD0111928A95E9F785E0FE0187
:10185000379601900D928A95E1F749815A816B8103
:101860007C818D819E810E94C0122B960FB6F894C8
:10187000DEBF0FBECDBFDF91CF910895FC01808107
:1018800091810E9494150895CF93882309F4A4C0F0
:10189000C82F8238C1F40E94DE0A81FD9DC069E331
:1018A00080916A0190916B010E94CB170E942116D2
:1018B0002FEF81EE94E0215080409040E1F700C08E
:1018C000000069E319C0833801F50E94DE0A80FD3B
:1018D00083C063E580916A0190916B010E94CB17F0
:1018E0000E9421162FEF81EE94E02150804090401D
:1018F000E1F700C0000063E580916A0190916B01FF
:101900000E94D617CF910C9421168438C1F40E94FE
:10191000DE0A82FD61C067E480916A0190916B01EB
:101920000E94CB170E9421162FEF81EE94E02150E8
:1019300080409040E1F700C0000067E4DDCF8CEF0D
:101940008C0F813AD0F46C2F80916A0190916B01D9
:101950000E944B17882349F06C2F80916A01909167
:101960006B010E94D6170E9421166C2F80916A018C
:1019700090916B010E94CB17C5CF80E28C0F88300D
:1019800048F4C77081E001C0880FCA95EAF70E9449
:10199000D615B8CFEBE5EC0FE33040F4F0E0EF50B4
:1019A000FE4F808190E0CF910C94120BE8E5EC0F94
:1019B000E73150F4F0E0EE0FFF1FED53FE4F808152
:1019C0009181CF910C94280BC03F30F08C2F0E9456
:1019D000EA1ACF910C94D71BCF910895882309F46C
:1019E00064C0823879F40E94DE0A81FF5EC069E338
:1019F00080916A0190916B010E94CB170E94211681
:101A000069E310C08338B1F40E94DE0A80FF4DC044
:101A100063E580916A0190916B010E94CB170E944F
:101A2000211663E580916A0190916B010E94D6179F
:101A30000C942116843879F40E94DE0A82FF35C0A6
:101A400067E480916A0190916B010E94CB170E941C
:101A5000211667E4E7CF9CEF980F913A10F4682FB6
:101A6000E1CF90E2980F983050F4877091E001C078
:101A7000990F8A95EAF7892F0E94DC15D9CF9BE54B
:101A8000980F933020F480E090E00C94120B98E5CE
:101A9000980F973120F480E090E00C94280B803F61
:101AA00020F00E94521B0C94D71B0895CF93C82F8F
:101AB0000E94440CC93349F42FEF87EE93E0215084
:101AC00080409040E1F700C000008C2FCF910C9433
:101AD000EE0C882321F00E94D6150C94211608954F
:101AE000882321F00E94DC150C9421160895CF92D2
:101AF000DF92EF92FF920F931F93CF93DF937C01BE
:101B0000062FC72FFC01158112951F70D281D111AC
:101B10000E94F3150E94CC15882399F0DD2389F0EB
:101B20008C2F807F803421F080E2800F883048F055
:101B300082E00E946B160E94CC1591E0D82ED92627
:101B400001C0D12CCC2EC2948FE0C8228C2D90E005
:101B5000FC01E559FF4F0C941E248C2F807FCF7021
:101B6000882311F0C295C07FDD2399F0CC2309F4BE
:101B70008DC180E2800F883010F0011104C08C2FDD
:101B80000E94D61503C08C2F0E94E6150E942116D4
:101B90007DC1802F0E94EE0CCC2309F49CC180E211
:101BA000800F883010F0011104C08C2F0E94DC15CA
:101BB00003C08C2F0E94EC150E9421168CC18C2F23
:101BC000807FCF70803211F0C295C07F002319F062
:101BD0000130C9F022C0DD2371F0112341F0113032
:101BE00031F40E9406168C2B0E940E1674C10E94BE
:101BF00006168C2B1DC0112319F0113009F46BC18E
:101C00000E94171625C0DD2321F0163008F063C1AD
:101C10000EC0153008F05FC11BC0DD2361F0112339
:101C200031F0F701858180FF31C18F7085838C2F62
:101C30000E94690D50C1112359F0093309F037C1D1
:101C4000FFEF27EE83E0F15020408040E1F72DC107
:101C50008C2F0E94700D3FC18C2F869586958370C6
:101C600019F0813061F037C1DD2321F0802F9C2FE6
:101C7000937002C080E090E00E94120B34C1DD231B
:101C800021F0802F9C2F937002C080E090E00E9492
:101C9000280B29C1802FDD2319F00E94EA1A02C007
:101CA0000E94521B0E94D71B1EC18C2F837009F00B
:101CB00045C0D11114C1402F429546954770440F3D
:101CC000440F602F6F70862F90E0A0E0B0E0042EEC
:101CD00004C0880F991FAA1FBB1F0A94D2F704FFE4
:101CE00010C00FE010E020E030E004C0000F111F32
:101CF000221F331F4A95D2F70095109520953095F5
:101D000003C000E010E09801C695C695C370BC0101
:101D1000CD01602B712B822B932BC23049F058F4EC
:101D2000C13019F00E941114DAC00E94FF13D7C00D
:101D30000E942314D4C00E94FD13D1C0DD2319F0EA
:101D40008C2F817001C08695882309F4C8C0402F6C
:101D5000429546954770440F440F602F6F70862F51
:101D600090E0A0E0B0E0042E04C0880F991FAA1FE5
:101D7000BB1F0A94D2F704FF10C00FE010E020E070
:101D800030E004C0000F111F221F331F4A95D2F705
:101D9000009510952095309503C000E010E0980163
:101DA000C695C695C370BC01CD01602B712B822BEB
:101DB000932BC23049F058F4C13019F00E94D61468
:101DC0008EC00E94C4148BC00E94E81488C00E9478
:101DD000371485C0CF70DD2339F08C2F0E945D143D
:101DE000802F0E94690D7BC0802F0E94700D8C2F68
:101DF0000E947E1474C0023F01F128F4003F41F0BC
:101E0000013FA1F03FC0033FF9F0043F39F13AC070
:101E1000DD2341F0153008F05EC08C2F8F710E94D9
:101E2000A31459C0163008F056C0F7CFDD2339F09F
:101E30008C2F8F710E945D144EC0DD23C9F38C2F4F
:101E40008F710E947E1447C0DD2329F08C2F8F7183
:101E50000E94481440C00E9443143DC0DD2349F055
:101E6000CF718C2F0E945D1463E08C2F0E94561658
:101E700032C081E00E946B16123068F182E00E944D
:101E80006B1629C0DD2331F0112391F2802F0E94BF
:101E9000440C21C0112399F2093349F49FEFE7EE76
:101EA000F3E09150E040F040E1F700C00000802FE7
:101EB0000E94EE0C10C04C2F4F70602FC7010E9483
:101EC00008040E946E130FC04C2F4F70602FC70183
:101ED0000E940B0408C088EF8C0D843020F40E940F
:101EE000DE0A0E94AC03DD20C9F00E94C81580FD07
:101EF00015C0F70112820E94C2150E945D14C7012D
:101F00000E94AF0F0E94C215DF91CF911F910F91D8
:101F1000FF90EF90DF90CF900C947E14DF91CF91E3
:101F20001F910F91FF90EF90DF90CF9008950F9346
:101F30001F93CF93DF93EC01688179818A810E949E
:101F40009F158C010E94FA140E94EB13B801CE0178
:101F50000E94770DDF91CF911F910F910895CF933C
:101F6000DF93EC01988189812B813C81232B31F017
:101F70008F3F31F481E09F3F19F403C081E001C03D
:101F800080E080FD19C0CE010E94C50381110CC004
:101F90000E94CC15882381F08A81882369F082E031
:101FA000DF91CF910C946B16CE010E94970FCE015A
:101FB000DF91CF910C948E03DF91CF910895882308
:101FC00021F00E94E6150C9421160895882321F033
:101FD0000E94EC150C94211608950E94F3150E949E
:101FE00003160E9421160E94011D0E94D71B80E04B
:101FF00090E00E94120B80E090E00C94280B8091FE
:102000006A0190916B010E94E1170C94ED0F0E9400
:10201000E3150C94FF0FE92FE295EF704E2F50E07F
:10202000FA013297EE30F105B0F4E558FF4F0C9409
:102030001E24803F91F018F4883E68F40EC0843F5F
:1020400051F40BC0883E48F0813F29F406C093FB51
:10205000882780F9089580E0089581E008950E941E
:1020600094150E940B100895CF93DF9300D000D0F9
:102070001F92CDB7DEB70F900F900F900F900F907B
:10208000DF91CF910895CF93DF9300D000D000D09F
:10209000CDB7DEB726960FB6F894DEBF0FBECDBF24
:1020A000DF91CF9108951F93CF93DF93C0912302C7
:1020B00016E080912402C81799F0D0E01C9FF0012F
:1020C0001D9FF00D1124EB5DFD4F40815181628118
:1020D0007381848195810E9443102196C770E9CF56
:1020E000DF91CF911F910895409155025091560272
:1020F00060915702709158028091590290915A0252
:102100000C9443100F931F93CF93DF9380915A0247
:1021100082958F7009F05DC080915702882309F481
:1021200058C0809123021091240260915502709151
:102130005602C0915802D091590291E06F3F09F0C8
:1021400090E0292F06E0811709F443C0209721F081
:102150007F3F21F030E003C031E001C0322F90E03A
:1021600030FD34C0089FF001099FF00D1124DF01FC
:10217000AB5DBD4F11963C911197371327C03C9131
:10218000361324C012963C91129731111FC013963A
:102190004D915C9114974C1B5D0B483C5105B0F47C
:1021A00080915A028F70806180935A02E65DFD4FE4
:1021B00080818F708061808385E592E00E94AF0FFF
:1021C000DF91CF911F910F910C945310019687705E
:1021D000BACFDF91CF911F910F9108959F92AF9247
:1021E000BF92CF92DF92EF92FF920F931F93CF9304
:1021F000DF93CDB7DEB761970FB6F894DEBF0FBEA1
:10220000CDBF8C0185E0F801DE011D9601900D9295
:102210008A95E1F7F80140815181E2809091550261
:1022200060915602209158023091590221153105D2
:1022300031F06F3F31F481E09F3F19F403C081E03A
:1022400001C080E0F82FF1709F2E80FD46C1F8019B
:10225000A380B48085E5C82E82E0D82EF090570286
:10226000F501E21BF30BFF2009F4DFC080915A0255
:10227000E83CF10508F09BC0282F207F09F052C0F0
:10228000561313C0491311C0FE2CE1100EC08F70FD
:10229000806180935A020E947410C6010E94AF0FA1
:1022A00080915A02F801858358C1AB2831F05F3F15
:1022B00031F481E04F3F19F403C081E001C080E0B8
:1022C00080FD03C081E08E2502C080E090E0F82F01
:1022D000F170FF2E80FF1CC0809123022091240208
:1022E00036E0821709F417C190E0389FF001399F5A
:1022F000F00D1124EB5DFD4F6181561306C0608126
:10230000461303C06281E61203C001968770E9CFCD
:10231000FE2CEE2009F421C180915A028160809345
:102320005A025AC0561306C0491304C0E11002C035
:10233000F8019FC04D875E878D859E850E942F1076
:10234000882379F1EE2069F120915A02822F82953B
:102350008F7090E0029774F0809155029091560230
:1023600098878F831986BB86AA862C87CE0107960D
:102370000E94AF0F86E0F801A5E5B2E001900D9252
:102380008A95E1F70E9482100E9474100DC05617C2
:1023900029F14D875E878D859E850E942F108111C2
:1023A0002CC0C8010E94AF0FFF24F394D6C0282F81
:1023B000207F69F77A2DB98AA88A6E2D89890E94B3
:1023C000341085E592E00E94AF0F86E0F60111928D
:1023D0008A95E9F70E947410F12CBFC04913D9CF38
:1023E000E110D7CFF8018583C8010E94AF0F86E0C6
:1023F000F60111928A95E9F7B0C0EE2091F2209192
:102400005A02822F82958F7090E002970CF4B2CF1F
:1024100080915502909156029A8389831B82BD82D6
:10242000AC822E83CE010196A3CFE83CF10508F0E3
:1024300047C0FE2CEE2009F4B4CF561330C0491328
:102440002EC020915A0220FD21C0822F82958F70CC
:10245000482F50E041155105C9F0F80125834F3050
:10246000510541F08F5F982F9295907F822F8F704A
:10247000892B8583C8010E94AF0F86E0F801A5E58E
:10248000B2E001900D928A95E1F742C086E0F80132
:10249000A5E5B2E001900D928A95E1F75EC04D8707
:1024A0005E878D859E850E942F10811163CF80915C
:1024B0005A02816080935A02C8010E94AF0F4DC03A
:1024C0007A2DB98AA88A6E2D89890E94341086E0F7
:1024D000F60111928A95E9F71BC0EE2009F461CF4D
:1024E0004D875E878D859E850E942F10F82E88234C
:1024F00009F457CF86E0F801A5E5B2E001900D920E
:102500008A95E1F785E592E00E943E0C0E948210D8
:102510000E94741022C04D875E878D859E850E9423
:102520009415292F22952F70223028F49F7039F0AE
:10253000811105C00BC0243028F49F7049F4805EDF
:10254000883020F0C8010E94AF0F9F2CF92C05C0E5
:10255000F8019581907F99F7F9CF8F2D61960FB68D
:10256000F894DEBF0FBECDBFDF91CF911F910F91C9
:10257000FF90EF90DF90CF90BF90AF909F90089525
:102580001F93CF93DF93CDB7DEB72C970FB6F89498
:10259000DEBF0FBECDBF4F83588769877A878B8791
:1025A0009C87CE0107960E94EE108823D1F09F8170
:1025B00088852A853B85232B31F08F3F31F481E0DC
:1025C0009F3F19F403C081E001C080E080FD47C057
:1025D0004F81588569857A858B859C850E9443103B
:1025E0003EC086E0FE013796DE01119601900D9205
:1025F0008A95E1F7FF81E8856A857B85611571051C
:1026000031F0EF3F31F481E0FF3F19F403C081E086
:1026100001C080E080FD23C02091240230E0C90188
:102620000196877099274091230250E084179507FF
:10263000F1F1F983EA837D836C8396E0929FD00168
:10264000939FB00D1124AB5DBD4FFE0131960190FB
:102650000D929A95E1F7809324020E94531016E0A0
:102660008091230290912402891771F1189FC00173
:1026700011248B5D9D4F0E94EE10882329F1E0917B
:1026800023021E9FF0011124EB5DFD4F408151811B
:1026900062817381848195810E944310809123021D
:1026A00090E001968770992780932302D9CF0E94EA
:1026B00007101092240210922302E5E5F2E086E072
:1026C000DF011D928A95E9F72C960FB6F894DEBFCC
:1026D0000FBECDBFDF91CF911F910895EF92FF9272
:1026E0000F931F93CF93DF938C01892B09F46CC058
:1026F000F12CEE24E394E8012196F80184918437CB
:1027000040F4843008F051C0813081F0823019F1FA
:102710005BC0853709F444C0A8F19CE7980F903757
:1027200008F052C08F770E94EE0C41C00E5F1F4F21
:10273000FE01849190E2980F983050F48770FE2D3E
:1027400001C0FF0F8A95EAF78F2F0E94F61514C07B
:102750000E94440C2DC00E5F1F4FFE01849190E239
:10276000980F983060F48770FE2D01C0FF0F8A9596
:10277000EAF78F2F0E94FC150E94211619C00E94B3
:10278000EE0C16C00E5F1F4FFE01C491CC2381F0EA
:102790008FE99FE00197F1F700C00000C150F6CF2C
:1027A0000E5F1F4FFE01F49003C00E94440C8E0187
:1027B0008F2D882309F49FCFEFE9FFE03197F1F7E0
:1027C00000C000008150F5CFDF91CF911F910F9194
:1027D000FF90EF900895089508950C94EC130C94D5
:1027E000ED130E94EF1360938C0270938D0280931F
:1027F0008E0290938F020C94ED0F0C94F1130F93B3
:102800001F9300918C0210918D0220918E023091C5
:102810008F02602B712B822B932B1F910F910C94A5
:10282000F1130F931F9300918C0210918D02209150
:102830008E0230918F0260237123822393231F9194
:102840000F910C94F1130F931F9300918C02109130
:102850008D0220918E0230918F026027712782278E
:1028600093271F910F910C94F1130C94EC130E9479
:102870003514609388027093890280938A02909342
:102880008B020C94ED0F60E070E0CB010C943714D8
:102890000F931F9341E050E060E070E08A019B01DC
:1028A00004C0000F111F221F331F8A95D2F7C901E0
:1028B000B8011F910F910C9437140F931F9341E0AF
:1028C00050E060E070E004C0440F551F661F771FA2
:1028D0008A95D2F78091880290918902A0918A020C
:1028E000B0918B028A019B01082B192B2A2B3B2BC1
:1028F000C901B8011F910F910C9437140F931F93C6
:1029000041E050E060E070E004C0440F551F661FD6
:10291000771F8A95D2F74095509560957095809174
:10292000880290918902A0918A02B0918B028A015B
:102930009B01082319232A233B23C901B8011F91B6
:102940000F910C9437140F931F9341E050E060E017
:1029500070E004C0440F551F661F771F8A95D2F799
:102960008091880290918902A0918A02B0918B0295
:102970008A019B01082719272A273B27C901B8018B
:102980001F910F910C9437140F931F93009188029D
:102990001091890220918A0230918B02602B712B59
:1029A000822B932B1F910F910C9437140F931F932D
:1029B000009188021091890220918A0230918B0245
:1029C00060237123822393231F910F910C9437145A
:1029D0000F931F93009188021091890220918A021F
:1029E00030918B0260277127822793271F910F91C7
:1029F0000C94371408952EE0929F800D1124E82F37
:102A0000E695E695E695877051E001C0550F8A95E9
:102A1000EAF785E0E89FF0011124E55AFD4F20E038
:102A200030E070E04081CB01022E02C09695879580
:102A30000A94E2F781708195842785238427819306
:102A40002F5F3F4F2530310569F708952EE0929FA3
:102A5000800D1124682F669566956695982F97705E
:102A600085E0689FB001112440E050E080E0FB0168
:102A7000E40FF51FE55AFD4F208130E0092E02C01A
:102A8000369527950A94E2F721703327042E01C06A
:102A9000220F0A94EAF7822B4F5F5F4F45305105B2
:102AA00031F70895BF92CF92DF92EF92FF920F938A
:102AB0001F93CF93DF938C01C0908802D09089023E
:102AC000E0908A02F0908B0280918C0290918D02AE
:102AD000A0918E02B0918F02C82AD92AEA2AFB2A35
:102AE000CFE1D0E0D701C6010C2E04C0B695A79562
:102AF000979587950A94D2F780FD04C0219790F7A7
:102B0000B12C07C0BC2EB8018C2F0E94270401975E
:102B1000A9F38B2DDF91CF911F910F91FF90EF9033
:102B2000DF90CF90BF900895CF93DF93EC010E9488
:102B30005215BE010E942704DF91CF9108951F9383
:102B4000CF93DF93EB0190912202992321F0CB01E7
:102B50000E94941513C0882349F0CB010E9452159E
:102B6000182F682FCE010E94FB1404C0CB010E94D5
:102B70002615182FBE01812F0E942704DF91CF91C7
:102B80001F9108958091900285958595859508956A
:102B9000809190028770089590919002977081E0E3
:102BA00009F480E008958091B40208959091B402F0
:102BB000892B8093B402089580959091B402892363
:102BC0008093B40208951092B40208959091B302D4
:102BD000892B8093B302089580959091B302892345
:102BE0008093B30208951092B30208959091B202B7
:102BF000892B8093B202089580959091B202892327
:102C00008093B20208951092B202089580919102C9
:102C1000089508950C9409160C940A169091910247
:102C2000981721F0809391020C940C1608958091CE
:102C30009102882329F01092910280E00C940C16E6
:102C40000895E0916A01F0916B018091B402808354
:102C5000E0916A01F0916B0190818091B302892B20
:102C60008083E0916A01F0916B0190818091B202C2
:102C7000892B808380919102882381F0E0916A0101
:102C8000F0916B019081892B808380916A019091F2
:102C90006B010E94351781110E94171680916A01FD
:102CA00090916B010C94EA0A0C94091698E0899FA4
:102CB00090011124262B209390020E945D14809194
:102CC00090028595859585950C94541610929002E6
:102CD00080E00C945416209190028095822380937A
:102CE0009002982F977079F430E0482F082E000C4E
:102CF000550B2417350739F08595859585950E94E4
:102D00007E140C946616089580E090E00E944024A2
:102D100021E08F3E9E4F09F020E0822F089582E04F
:102D200090E00C943824682F82E090E00C944624C4
:102D300083E090E00C943824682F83E090E00C94BA
:102D40004624CF9384E090E00E943824C82F81E28B
:102D500090E00E9438242C2F30E0A901582BCA01A2
:102D6000CF910895CF93C92F682F84E090E00E94FF
:102D700046246C2F81E290E0CF910C944624AB0165
:102D8000BC018FE090E00C945824AB01BC0183E1BE
:102D900090E00C94582460E070E0CB010C94C516D0
:102DA00060E070E0CB010E94BF160C94CB166FEE72
:102DB0007EEF80E090E00E94642460E082E090E09A
:102DC0000E94462460E083E090E00E944624109236
:102DD0008C0210928D0210928E0210928F0260E08F
:102DE00084E090E00E94462460E081E290E00E944E
:102DF000462460E085E090E00E94462460E086E0A2
:102E000090E00E9446246FEF87E090E00E94462405
:102E100040E050E0BA0188E090E00E94582460E071
:102E20008DE090E00E94462440E050E0BA0188E145
:102E300090E00E94582460E087E190E00E944624E0
:102E400040E050E0BA018CE190E00E94582460E03C
:102E500080E290E00E9446240C94D0160C94D71681
:102E6000682F8EE090E00C944624FC01329680910D
:102E70007E01882331F08091000387FF02C09EE12C
:102E800001C096E080E0915028F021912223D9F3EF
:102E90008F5FF9CF0895662351F120917E0122239F
:102EA000E9F02091000327FF19C0462F469546956B
:102EB00046954E31E0F4677021E030E002C0220F09
:102EC000331F6A95E2F7FC01E40FF11D828190E067
:102ED0002823392381E0232B69F409C0FC013296B1
:102EE00008962191621729F0E817F907D1F780E0D9
:102EF000089581E008959C01FC0132969FEF80E0E7
:102F00004191461789F09F3F19F4411101C0982F54
:102F10008F5F8630A9F79F3F39F0F901E90FF11D66
:102F200097FDFA956283089508959C012A5F3F4FAB
:102F3000FC014281461301C0128201968217930759
:102F4000B9F70895262F2695269526952E3168F4F3
:102F5000FC01E20FF11D677021E030E001C0220F9B
:102F60006A95EAF78281282B22830895262F2695D9
:102F7000269526952E3170F4FC01E20FF11D677045
:102F800021E030E001C0220F6A95EAF720958281A6
:102F900028232283089520917E01222329F0209165
:102FA000000327FD0C94A2170C947B1720917E013F
:102FB000222329F02091000327FD0C94B6170C94CE
:102FC000951720917E01FC013296222331F08091E9
:102FD000000387FF02C08EE101C086E0DF011D9281
:102FE0008A95E9F7089508950C94F3170C94F31754
:102FF000CF930E94F6170E947A060E94F417C0E051
:103000008C2F0E941606892B29F4CF5FC530C1F79B
:1030100080E001C081E0CF9108950C94F3170C94E7
:103020000D180E940F1880910603843049F1109208
:10303000B60220E488E190E00FB6F894A89580935A
:1030400060000FBE2093600080E00E94AC030E94ED
:103050000F1883B7817F846083BF83B7816083BF8C
:103060007894889583B78E7F83BF0FB6F894A89520
:1030700080916000886180936000109260000FBEB4
:1030800008950C94F3170E9407100E94DE0A0E9414
:10309000AC030C9441181F920F920FB60F9211249B
:1030A0008F939F93AF93BF938091B602811113C00A
:1030B0008091FC029091FD02A091FE02B091FF026E
:1030C0004196A11DB11D8093FC029093FD02A09337
:1030D000FE02B093FF02BF91AF919F918F910F902D
:1030E0000FBE0F901F90189582E084BD93E095BDB0
:1030F0009AEF97BD80936E0008952FB7F894809152
:10310000FC029091FD02A091FE02B091FF022FBF40
:1031100008959C014FB7F8948091FC029091FD02B4
:10312000A091FE02B091FF024FBF821B930B089546
:1031300078941F920F920FB60F9211248F939F9342
:10314000AF93BF938091FC029091FD02A091FE028B
:10315000B091FF020196A11DB11D8093FC029093D6
:10316000FD02A093FE02B093FF02BF91AF919F9129
:103170008F910F900FBE0F901F90189581E0809354
:10318000E00080E28093D8001092C9008FE19EE4B5
:103190000197F1F700C0000087E090EBDC0180931D
:1031A0000F0390931003A0931103B09312039CE0BC
:1031B00088E10FB6F894A895809360000FBE9093B5
:1031C0006000FFCFAF92BF92CF92DF92EF92FF925B
:1031D0000F931F93CF93C0E0CC24C394D12CE82E3F
:1031E000F12C8C2F0E9416065C0100E010E0C60155
:1031F000002E02C0880F991F0A94E2F78A219B21B2
:10320000892B31F40F5F1F4F0E30110581F70AC073
:10321000602F7C2F80E00E940C04E816F90691F7DD
:1032200081E004C0CF5FC530E1F680E0CF911F910F
:103230000F91FF90EF90DF90CF90BF90AF900895E7
:10324000CF93C82F8CE20E94E218882321F08C2FA4
:10325000CF910C94E21880E0CF910895CF930E9413
:103260008416811102C00E942E17C5E6C15049F094
:103270000E947A068FE39CE90197F1F700C00000F5
:10328000F5CF89E20E942019811120C18AE20E94B3
:10329000201981110E942E1785E00E9420198111AA
:1032A0000E94BE180E948F168093B50287E00E948C
:1032B00020198823A9F18BE10E942019882351F05D
:1032C0008091B50281FB222720F991E0922790FBA3
:1032D00081F90EC08EE00E942019882361F0809150
:1032E000B50282FB222720F991E0922790FB82F918
:1032F0008093B50215C080E10E9420199091B5021B
:10330000882341F093FB222720F981E0822780FB6C
:1033100093F904C0892F809580FB90F99093B502B2
:103320008091B5020E9493160E94A116909301030A
:103330008093000380EE0E942019882341F0809141
:103340000003982F909590FB80F98093000389E308
:103350000E942019882359F08091000381FB2227C5
:1033600020F991E0922790FB81F98093000382EE8F
:103370000E942019882359F08091000382FB2227A4
:1033800020F991E0922790FB82F98093000386EE6A
:103390000E942019882359F08091000383FB222783
:1033A00020F991E0922790FB83F98093000383EE4C
:1033B0000E942019882359F08091000384FB222762
:1033C00020F991E0922790FB84F98093000385E334
:1033D0000E942019882359F08091000385FB222741
:1033E00020F991E0922790FB85F98093000381E317
:1033F0000E942019882359F08091000386FB222720
:1034000020F991E0922790FB86F98093000381E1F7
:103410000E942019882359F08091000387FB2227FE
:1034200020F991E0922790FB87F980930003809127
:103430000003909101030E94B21687E20E942019B6
:10344000C82F8EE10E9420198111C2608FE10E9475
:1034500020198111C46080E20E9420198111C86086
:1034600081E20E9420198111C06182E20E9420192C
:103470008111C06283E20E9420198111C06484E23C
:103480000E942019882311F0C06802C0CC2329F0C3
:103490008C2F0E949C166C2F03C00E949816682FD8
:1034A00070E080E090E00E94FD138FE00E94201900
:1034B000882319F081E00E94301785E10E942019CD
:1034C000882321F080E0CF910C943017CF9108959C
:1034D0008091BE0280FF0BC06091710185E0689F02
:1034E000B001112475956795759567952BC081FF7F
:1034F00009C06091710185E0689FB0011124759544
:10350000679520C082FF07C06091710185E0689FC8
:10351000B001112417C09091BD029923D1F06091A0
:103520007001961788F72091710185E0289F90011E
:103530001124929FA001939F500D112470E0CA01A5
:103540000E940A246038710540F46115710519F470
:1035500006C065E070E0862F08958FE7089581E04A
:1035600008958091BE0280FF08C060916D0170E0F7
:10357000759567957595679521C081FF06C0609127
:103580006D0170E07595679519C082FF04C0609168
:103590006D0170E010C09091BD02992399F0609187
:1035A0006C019617A0F780916D01899FC0011124CD
:1035B00070E00E940A246038710540F461157105BD
:1035C00019F406C061E070E0862F08958FE7089532
:1035D00081E00895803F21F40E94681A819504C01B
:1035E000813F29F40E94681A8093C2020895823FA5
:1035F00021F40E94681A819504C0833F29F40E9437
:10360000681A8093C1020895893F19F40E94B11A83
:1036100005C08A3F31F40E94B11A81958093C3029C
:1036200008958B3F21F40E94B11A819504C08C3F0C
:1036300029F40E94B11A8093C4020895843F21F4B2
:103640008091C002816017C0853F21F48091C00243
:10365000826011C0863F21F48091C00284600BC05B
:10366000873F21F48091C002886005C0883F31F413
:103670008091C00280618093C00208958D3F21F443
:103680008091BE0281600BC08E3F21F48091BE020A
:10369000826005C08F3F29F48091BE0284608093D0
:1036A000BE020895803F39F48091C20287FF6CC04A
:1036B0001092C20269C0813F29F48091C20218169B
:1036C000BCF362C09091C102823F29F497FF5CC0B5
:1036D0001092C10259C0833F19F41916CCF354C09B
:1036E000893F41F48091C30218160CF04DC010922E
:1036F000C3024AC08A3F29F48091C30287FF44C0B5
:10370000F6CF8B3F39F48091C40287FF3DC0109201
:10371000C4023AC08C3F29F48091C4021816BCF34D
:1037200033C0843F21F48091C0028E7F17C0853F53
:1037300021F48091C0028D7F11C0863F21F48091D9
:10374000C0028B7F0BC0873F21F48091C002877F2E
:1037500005C0883F31F48091C0028F7E8093C00203
:1037600013C08D3F21F48091BE028E7F0BC08E3F2F
:1037700021F48091BE028D7F05C08F3F29F4809196
:10378000BE028B7F8093BE028091C10281110EC068
:103790008091C20281110AC08091C302811106C0CA
:1037A0008091C402811102C01092BD0208958FEB76
:1037B00092E00E94040B0E947D189093BC028093BB
:1037C000BB020895CF93DF9300D000D000D0CDB7D7
:1037D000DEB786E0EFEBF2E0DE01119601900D928C
:1037E0008A95E1F78091C102811105C08091C202E2
:1037F000882309F47AC08091B9029091BA020E949C
:103800008918AC019091BD02992339F02091720181
:1038100030E02417350758F068C0209173018AE022
:10382000289F900111242417350718F05EC09F3F90
:1038300019F09F5F9093BD021092C3021092C402D0
:103840008091C102181624F40E94681A8093C10264
:103850008091C10287FF05C00E94681A81958093FC
:10386000C1028091C202181624F40E94681A809343
:10387000C2028091C20287FF05C00E94681A81952A
:103880008093C2023091C1023323E1F02091C20241
:103890002223C1F045EB3403C0011124992319F010
:1038A0009093C10203C081E08093C10235EB2303F2
:1038B000C0011124992319F09093C20203C081E042
:1038C0008093C2020E94D71B8091BB029091BC02E0
:1038D0009093BA028093B90286E0FE013196AFEB75
:1038E000B2E001900D928A95E1F78091C3028111B7
:1038F00005C08091C402882309F47AC08091B70280
:103900009091B8020E948918AC019091BD02992350
:1039100039F020916E0130E02417350758F068C067
:1039200020916F018AE0289F900111242417350708
:1039300018F05EC09F3F19F09F5F9093BD021092F8
:10394000C1021092C2028091C302181624F40E9490
:10395000B11A8093C3028091C30287FF05C00E9401
:10396000B11A81958093C3028091C402181624F481
:103970000E94B11A8093C4028091C40287FF05C0DF
:103980000E94B11A81958093C4023091C3023323FF
:10399000E1F02091C4022223C1F045EB3403C001C1
:1039A0001124992319F09093C30203C081E08093FE
:1039B000C30235EB2303C0011124992319F090931E
:1039C000C40203C081E08093C4020E94D71B80918F
:1039D000BB029091BC029093B8028093B70286E03C
:1039E000FE013196AFEBB2E001900D928A95E1F7BE
:1039F00026960FB6F894DEBF0FBECDBFDF91CF91F4
:103A00000895EFEBF2E086E0DF011D928A95E9F779
:103A10001092BD021092BE0208958091E5020895B1
:103A2000CF93DF9300D01F92CDB7DEB790910603FE
:103A3000943019F589837B836A8382E08093E9005F
:103A40008FEF9091E800815095FD06C095ED9A9515
:103A5000F1F700008111F5CF8091E80085FF0DC0DE
:103A600040E050E063E070E0CE0101960E946C1FE0
:103A70008091E8008E778093E8000F900F900F9070
:103A8000DF91CF910895CF93DF93EC010E944F1FF8
:103A9000823011F0843031F4BE0184E0DF91CF91A7
:103AA0000C94101DDF91CF910895BC0183E00C941C
:103AB000101DCF93DF93EC010E944F1F823011F055
:103AC0008430F9F482E08093E9008FEF9091E80070
:103AD000815095FD06C095ED9A95F1F70000811192
:103AE000F5CF8091E80085FF0CC040E050E066E033
:103AF00070E0CE010E946C1F8091E8008E77809369
:103B0000E800DF91CF910895CF93DF93EC010E94FD
:103B10004F1F823011F08430D9F580917E018823C7
:103B200039F08091000387FF03C060E282E002C0A9
:103B300068E081E08093E9008FEF9091E800815088
:103B400095FD06C095ED9A95F1F700008111F5CF2E
:103B50008091E80085FF1CC080917E01811105C025
:103B600040E050E068E070E003C070E040E050E00A
:103B7000CE010E946C1F8091E8008E778093E80050
:103B800080E2FE01A5ECB2E001900D928A95E1F78A
:103B9000DF91CF91089580910503811109C00E94A2
:103BA000FD200E945A218091E20084608093E2000F
:103BB0000895109205030895089508950C944318EC
:103BC00042E061EC81E00E94762042E261EC82E01A
:103BD0000C94762080910803833009F460C030F49F
:103BE000813071F0823009F499C008958A3009F467
:103BF00085C08B3009F46BC0893009F0A7C020C0A4
:103C000080910703813A09F0A1C08091E800877F85
:103C10008093E80080910B0390910C03892B21F491
:103C200060E285EC92E003C060E080E090E070E04C
:103C30000E94B71F8091E8008B778093E800089579
:103C400080910703813209F081C080910B0390912C
:103C50000C03029708F07AC08091E800877F809378
:103C6000E8008091E80082FD05C080910603811183
:103C7000F8CF6CC02091F3008091F20090E0922B7D
:103C8000029729F48091F1008B7F813021F480919B
:103C9000F1008093E5028091E8008B7753C080911A
:103CA0000703813A09F052C080910B0390910C03F5
:103CB000892B09F04BC08091E800877F8093E80052
:103CC0008091E80080FFFCCF80917E0136C080911A
:103CD00007038132D9F580910B0390910C03892B56
:103CE000A9F58091E800877F8093E8000E94AB20CF
:103CF0008091090380937E010C9407108091070343
:103D0000813221F58091E800877F8093E8000E944E
:103D1000AB2080910A038093E60208958091070307
:103D2000813AA1F48091E800877F8093E800809138
:103D3000E80080FFFCCF8091E6028093F100809143
:103D4000E8008E778093E8000C94AB20089584B748
:103D5000877F84BF0FB6F894A89580916000886132
:103D600080936000109260000FBE90E080E80FB674
:103D7000F89480936100909361000FBE0E944E0BF7
:103D80000E94FD200E945A218091E200846080936D
:103D9000E20078940E94EF230E94580B84E791E0A0
:103DA0000E94D90A80910603853069F40E94111897
:103DB000809104038823B1F30E94F817882391F3BC
:103DC0000E94561FEFCF0E94600BECCF0C94E81EB0
:103DD000292F332723303105C9F060F42130310514
:103DE00081F02230310509F04AC08BE390E022EFE8
:103DF00032E049C02132310511F12232310579F129
:103E00003EC082E190E02DE233E03DC09927813051
:103E1000910561F040F08230910559F0039779F5F2
:103E2000ECEBF2E008C0EEEEF2E005C0E6EDF2E009
:103E300002C0E2ECF2E0849190E09F0124C06115A1
:103E4000710541F061307105D1F489E090E02DE118
:103E500033E019C089E090E024E033E014C061153C
:103E6000710541F06130710551F48CEB90E02FE366
:103E700033E009C080E490E02BEF33E004C080E041
:103E800090E020E030E0FA013183208308958091B2
:103E90000603843011F081E0089582E00895809156
:103EA000E702811102C00C94471F089580E189BD8B
:103EB00082E189BD09B400FEFDCF8091D8008F7DDD
:103EC0008093D8008091E00082608093E000809130
:103ED000E00081FDFCCF0895CF92DF92EF92FF9238
:103EE0000F931F93CF93DF93EC018B017A010E9414
:103EF000CA20811133C0E114F10439F0F701808147
:103F00009181081B190BC80FD91FC12CD12C011589
:103F1000110519F18091E80085FD16C08091E80037
:103F20008E778093E800E114F10449F0F701808175
:103F30009181C80ED91ED182C08285E00FC00E9437
:103F4000CA20882321F30AC089918093F10001508F
:103F50001109FFEFCF1ADF0ADACF80E0DF91CF91AE
:103F60001F910F91FF90EF90DF90CF9008952091D7
:103F70000D0330910E032617370748F061157105C0
:103F800039F42091E8002E772093E80001C0B901B0
:103F9000FC0120E06115710579F180910603882309
:103FA000F1F18530F1F18091E80083FD3CC0809112
:103FB000E80082FD2EC08091E80080FFEBCF2091C9
:103FC000F3008091F20090E0922B6115710551F0A1
:103FD0008830910538F421912093F10061507109E6
:103FE0000196F3CF21E0089709F020E08091E800E6
:103FF0008E778093E800CECF2111CFCF0AC0809179
:104000000603882361F0853061F08091E80083FD2C
:104010000AC08091E80082FFF2CF80E0089582E03C
:10402000089583E0089581E0089520910D03309173
:104030000E032617370748F06115710539F42091F2
:10404000E8002E772093E80001C0B901FC0120E0D0
:104050006115710591F180910603882309F440C030
:10406000853009F43FC08091E80083FD3DC0809118
:10407000E80082FD2FC08091E80080FFE9CF209109
:10408000F3008091F20090E0922B6115710559F0D8
:104090008830910540F424912093F10031966150CD
:1040A00071090196F2CF21E0089709F020E0809194
:1040B000E8008E778093E800CBCF2111CCCF0AC0E7
:1040C00080910603882361F0853061F08091E800DB
:1040D00083FD0AC08091E80082FFF2CF80E008955E
:1040E00082E0089583E0089581E00895982F973045
:1040F00068F59093E900981739F07091EC002091E1
:10410000ED005091F00003C0242F762F50E021FDE8
:1041100002C09F5FECCF3091EB003E7F3093EB000D
:104120003091ED003D7F3093ED003091EB00316038
:104130003093EB007093EC002093ED005093F0006F
:104140002091EE0027FDE5CF80E008958F708093E9
:10415000E90081E008958091070387FF11C08091F5
:10416000E80082FD05C0809106038111F8CF11C0DF
:104170008091E8008B770BC080910603882349F07B
:104180008091E80080FFF8CF8091E8008E778093DF
:10419000E80008952091E4003091E50095E6409113
:1041A000EC00842F817040FF23C08091E80080FDE7
:1041B0001DC080910603882399F0853099F0809185
:1041C000EB0085FD11C04091E4005091E5002417FB
:1041D000350729F3915011F09A01E1CF84E0089559
:1041E00082E0089583E0089581E0089580E00895D5
:1041F0004091E80042FFDDCF08950E946B210E94AC
:104200007321E0EEF0E0808181608083E8EDF0E0F2
:1042100080818F77808319BCA7EDB0E08C918E7F71
:104220008C9380818F7E80831092050308950F9375
:104230001F93CF93DF930E946B210E947321C8EDDF
:10424000D0E088818F77888388818068888388819F
:104250008F7D888319BC109206031092020310927E
:1042600004031092030300EE10E0F80180818B7FBD
:10427000808388818160888342E060E080E00E94E2
:104280007620E1EEF0E080818E7F8083E2EEF0E048
:10429000808181608083808188608083F801808153
:1042A0008E7F8083888180618883DF91CF911F9189
:1042B0000F910895E8EDF0E080818F7E8083E7ED37
:1042C000F0E080818160808384E082BF81E0809320
:1042D00005030C941721E8EDF0E080818E7F808348
:1042E0001092E20008951092DA001092E100089511
:1042F0001F920F920FB60F9211242F933F934F935B
:104300005F936F937F938F939F93AF93BF93EF933D
:10431000FF938091E10082FF0BC08091E20082FF59
:1043200007C08091E1008B7F8093E1000E94EE2323
:104330008091DA0080FF1FC08091D80080FF1BC0F1
:104340008091DA008E7F8093DA008091D90080FF1F
:104350000DC080E189BD82E189BD09B400FEFDCFB9
:1043600081E0809306030E94CB1D05C019BC10920A
:1043700006030E94D91D8091E10080FF19C0809141
:10438000E20080FF15C08091E2008E7F8093E20002
:104390008091E20080618093E2008091D800806289
:1043A0008093D80019BC85E0809306030E94DD1D30
:1043B0008091E10084FF30C08091E20084FF2CC036
:1043C00080E189BD82E189BD09B400FEFDCF809105
:1043D000D8008F7D8093D8008091E1008F7E8093FC
:1043E000E1008091E2008F7E8093E2008091E20004
:1043F00081608093E20080910203882311F084E0C1
:1044000007C08091E30087FD02C081E001C083E026
:10441000809306030E94DE1D8091E10083FF29C086
:104420008091E20083FF25C08091E100877F809327
:10443000E10082E080930603109202038091E10084
:104440008E7F8093E1008091E2008E7F8093E20076
:104450008091E20080618093E20042E060E080E0D1
:104460000E9476208091F00088608093F0000E9486
:10447000DC1DFF91EF91BF91AF919F918F917F9143
:104480006F915F914F913F912F910F900FBE0F90C1
:104490001F9018951F920F920FB60F9211242F9311
:1044A0003F934F935F936F937F938F939F93AF93BC
:1044B000BF93CF93DF93EF93FF93C091E900CF7049
:1044C0008091EC00D82FD17080FDD0E81092E900E7
:1044D0008091F000877F8093F00078940E948E2274
:1044E0001092E9008091F00088608093F000CD2B5D
:1044F000CF70C093E900FF91EF91DF91CF91BF9111
:10450000AF919F918F917F916F915F914F913F916B
:104510002F910F900FBE0F901F9018951F93CF9360
:10452000DF93CDB7DEB7AA970FB6F894DEBF0FBE04
:10453000CDBFE7E0F3E08091F100819323E0EF301D
:10454000F207C9F70E94EA1D8091E80083FF2EC19F
:104550008091070390910803492F50E04A3051059C
:1045600008F024C1FA01E757FF4F0C941E2480384D
:1045700021F0823809F01AC108C08091030390919C
:104580000403992389F082600FC080910B038F7020
:10459000873008F00BC18093E9008091EB0085FB28
:1045A000882780F91092E9009091E800977F909316
:1045B000E8008093F1001092F100D1C0282F2D7FE8
:1045C00009F0F4C0882319F0823061F0EFC08091C7
:1045D0000903813009F0EAC0933009F080E080934C
:1045E00004032EC08091090381112AC080910B031E
:1045F0008F702FEF280F263008F0D8C08093E90085
:104600002091EB0020FF1CC0933021F48091EB003F
:10461000806214C09091EB0090619093EB0021E0D8
:1046200030E0A90102C0440F551F8A95E2F740937C
:10463000EA001092EA008091EB0088608093EB0022
:104640001092E9008091E800877F8093E8000E9443
:10465000AB20ACC08111AAC0109109031F778091D3
:10466000E3008078812B8093E3008091E800877FCE
:104670008093E8000E94AB208091E80080FFFCCF8F
:104680008091E30080688093E300111102C082E012
:1046900001C083E08093060389C08058823008F00F
:1046A00085C08091090390910A038C3D53E09507E2
:1046B00079F583E08A838AE289834FB7F894DE0133
:1046C000139620E03EE051E2E32FF0E050935700D4
:1046D000E49120FF03C0E295EF703F5FEF708E2FF3
:1046E00090E0EA3010F0C79601C0C0968D939D937C
:1046F0002F5F243149F74FBF8091E800877F809377
:10470000E8006AE270E0CE0101960E94B71F16C071
:1047100060910B0370910C03AE014F5F5F4F0E94DD
:10472000E61EBC01892B09F441C09091E800977FF7
:104730009093E80089819A810E9415208091E80079
:104740008B778093E80032C0803881F58091E80053
:10475000877F8093E800809102038093F10080912D
:10476000E8008E7772CF811121C08091090390916A
:104770000A0399270297D4F48091E800877F8093F9
:10478000E80080910903809302030E94AB2080918E
:104790000203811106C08091E30087FD02C081E021
:1047A00001C084E0809306030E94E01D8091E80030
:1047B00083FF0AC08091E800877F8093E8008091A2
:1047C000EB0080628093EB00AA960FB6F894DEBFF0
:1047D0000FBECDBFDF91CF911F9108950895CF9364
:1047E000809106038823A1F0C091E900CF709091D9
:1047F000EC00892F817090FD80E8C82B1092E900B1
:104800008091E80083FD0E948E22CF70C093E90062
:10481000CF91089597FB072E16F4009407D077FDEB
:1048200009D00E94242407FC05D03EF49095819580
:104830009F4F0895709561957F4F0895EE0FFF1F6C
:104840000590F491E02D0994AA1BBB1B51E107C010
:10485000AA1FBB1FA617B70710F0A61BB70B881F10
:10486000991F5A95A9F780959095BC01CD0108959F
:10487000F999FECF92BD81BDF89A992780B5089528
:10488000A8E1B0E042E050E00C946C24262FF999A6
:10489000FECF92BD81BDF89A019700B4021639F09F
:1048A0001FBA20BD0FB6F894FA9AF99A0FBE089570
:1048B0000396272F0E9447240E944624252F0E94FA
:1048C0004724242F0C9447240196272F0E94472425
:1048D0000C944624DC01CB01FC01F999FECF06C003
:1048E000F2BDE1BDF89A319600B40D9241505040AE
:0848F000B8F70895F894FFCF1A
:1048F8009E01000000980100000092010000008C59
:1049080001000000860100000080010000007A011B
:1049180000000074010000006E0100000068010042
:10492800000062010000005C010000005601000068
:104938000050010000004A0100000044010000008E
:104948003E01000000380100000032010000002C88
:104958000100000026010000000192022808641EE0
:10496800140A321E0D1D841D591D551D431D01E2DB
:1049780000E900EA00B500B600B700CD008301CC1D
:10498800008A0192019401210223022402250226B1
:104998000227022A02B300B4006F007000818283EC
:1049A800F0F1C66766379431303534979633909175
:1049B800929395E200E900EA00B500B600B700CD91
:1049C800008301CC008A0192019401210223022470
:1049D800022502260227022A02B300B4006F0070E3
:0449E8000081828345
:00000001FF
